:10000000FF0F0020D9070000570700005707000026
:1000100057070000570700005707000000000000C6
:100020000000000000000000000000005707000072
:1000300057070000000000005707000057070000A6
:10004000827BD207FCD501837047817B4907FCD5B1
:10005000008BC0B270470120A0490A7F01231343DF
:100060000B774A7F10434877222008709C4801682C
:1000700020220A4302609B489B4908809B489C4978
:100080000160018AC90BFCD1C021890241609949F4
:100090004181018AC90BFCD1016802220A43026036
:1000A00095480021017041708170C17001714171EA
:1000B000704780B501008D48FFF7C2FF012002BDE7
:1000C00080B58A48FFF7C1FF02BD80B5AC48007813
:1000D000400705D5FFF7F4FF232801D1012002BD19
:1000E000002002BDA64801784807C00F704770B5D0
:1000F0000D000400002604E02078FFF7DAFF641CFE
:10010000761CAE42F8D3300070BD10B50400FFF786
:10011000D7FF2070012010BD000248400821420096
:10012000000402D59748504000E01000491EF6D167
:1001300080B27047F3B581B000260027924D17E0DA
:1001400031002000FFF7E8FF06002889002802D1CF
:10015000A87900280BD0019804700198401C0190E8
:1001600068460089802802D12889401E28817F1C8A
:1001700068460089BFB2874207D2FFF7A1FF04009B
:1001800068790028DCD00120FEBD3000FEBD70B5CE
:1001900082B005000C0002216846FFF7CBFF8021EA
:1001A0002800FFF7C7FF050077484079002814D1E1
:1001B000FFF786FF0602FFF783FF301880B2A842E0
:1001C00008D168460178A14204D14078E143C9B220
:1001D000884204D01820FFF76CFF002076BD06206F
:1001E000FFF767FF012076BDFEB50F0001216B46CA
:1001F000197002900020644A5071002F01D01781BD
:1002000000219171780602D080377F208743FFF765
:1002100057FF5D494979002904D000205A494871A7
:10022000FFF74EFF152805D0432803D07128EED1E3
:100230000020FEBD0298019000260120FFF739FF43
:1002400068460078FFF735FF68460178C843C0B2BA
:10025000FFF72FFF80244C480089002805D14A4928
:100260008979002901D1002506E001990D78491C02
:100270000191401E444908812800FFF71AFF310010
:100280002800FFF749FF0600641EE4D1000AFFF7CB
:1002900010FFF0B2FFF70DFFFFF712FF3A4949795F
:1002A000002903D0002038494871FEBD062808D136
:1002B00068460078401C69460870803F029880308C
:1002C0000290002FB6D10420FFF7F3FEFFF7F8FEEF
:1002D00000202D4988710120FEBD00003C440041F2
:1002E0002004004010400000020C004000140042B6
:1002F0000400314004C5000060000020F8B5009003
:1003000064260120012400251F4F7D71002901D1A1
:10031000B87101E03981BD714320FFF7CAFE1B4867
:1003200002E0002806D0401E154909784907F8D593
:10033000002806D1761EEFD115E0012815D000283F
:100340001BD0FFF7BDFE797900290BD1012802D01F
:1003500004280FD011E0E1B20098FFF718FF797977
:100360000029EAD07D710020F2BD641C0098803025
:100370000090E6E70620FFF79CFEBD710120F2BD6C
:100380000E140042211000006000002000350C0017
:10039000012802D1BDA0B04948607047F0B585B0D2
:1003A000AD4A1378002B2CD0042901D1006804E059
:1003B000022901D1008800E00078490001AB5C18F7
:1003C0000094641C0025302604E0373727700009AC
:1003D000641E6D1C8D4205D207073F0F0A2FF4DA09
:1003E0003743F3E71E70782058700A20009B9870FE
:1003F0000D20009BD870091D01A85268D268904753
:1004000002E05268D268904705B0F0BD016881F300
:100410000888010A0902914A116040680047704744
:10042000F8B500248C4D6C617A206870402128005A
:1004300020306A6812699047286128002030A8613E
:10044000EC6007E06870AC60A869401CA861E868CF
:10045000401CE860E86829698842E7D2A86900780A
:100460000100FF29F3D0232900D0DAE02878002802
:1004700004D002217AA06A68D2689047687853282D
:1004800035D12869E968814220D2AA69521CAA6143
:10049000491CE960401AA968884200D30800E86155
:1004A000AC700FE0A8690078696908706869401C41
:1004B0006861A869401CA861E868401CE860A878E9
:1004C000401CA870A878E9698842EBD3E868401E10
:1004D000E860A869401EA861A878A968884204D28B
:1004E000091A68696A689269904700BF8DE05228CE
:1004F00005D1A96868696A685269904785E04F2804
:1005000003D1A868696908707FE0482803D1A8680A
:100510006969088079E0572803D1A868696908608B
:1005200073E06F2802D1012168690EE0682804D1C8
:1005300068690088A860022105E0772808D1686909
:100540000068A860042128000830FFF727FF5CE05E
:10055000472807D1A868FFF759FF0620696809688E
:10056000884752E0542802D10120287048E04E28E4
:1005700009D12878002804D1022139A06A68D268FC
:1005800090472C7041E056283FD1012135A06A6880
:10059000D26890473CA000F087F801003AA06A6852
:1005A000D2689047012130A06A68D268904700BFA6
:1005B0002FA0A861EC6001E0491CE960A869411C1A
:1005C000A961E96800780028F6D100BF28A06A6810
:1005D000D2689047012124A06A68D2689047EC60F5
:1005E00026A0A86101E0491CE960A869411CA96135
:1005F000E96800780028F6D120A06A68D2689047A0
:10060000022117A06A68D26890477A206870AC60AF
:100610002878002804D0012114A06A68D268904785
:1006200012E70600AA6813013700303F0A2F03D2F1
:1006300030391943A96007E73700413F062F01D23F
:100640003739F6E7613E062E01D25739F1E72C29FA
:1006500000D0F7E66A61F6E60000002008ED00E051
:100660000A0D000076000000200000003E0000009F
:100670004D617920323720323031340031343A350F
:10068000333A303500000000312E3100B300000055
:10069000C1000000E5000000EF0000000B010000B9
:1006A000E9010000FD020000010000E0491C0A7899
:1006B000002AFBD1081A704738B580200001416834
:1006C0000022D243914216D0134A0301136006243C
:1006D000124D2C705361D2691204D30F6A46137005
:1006E0001278002A07D0006880F308888020000173
:1006F0000B4A106008470B4801680B4A0A40026029
:10070000FFF7A9FCFFF7E1FC0028FBD00120FFF771
:100710003FFEFFF785FEFCE7044400414F440041E3
:1007200008ED00E020080040FFFCFFFF38B4012185
:1007300000220368001D002B0BD00468001D0C4232
:1007400002D04D466D1E64192260241D1B1FF0D07F
:10075000FAE732BC7047FEE710B507497944183113
:10076000064C7C44163404E0081D0A688918884742
:100770000100A142F8D110BD0800000014000000E3
:10078000ADFFFFFF6C000000000000200000000033
:1007900000F00BF8002801D0FFF7DEFF0020C04674
:1007A000C046FFF789FF00F002F80120704780B5CE
:1007B00000F002F801BD00000746384600F002F8DC
:1007C000FBE7000080B5C046C046024A1100182071
:1007D000ABBEFBE726000200C046C046C046C0468E
:0407E000FFF7D6FF4A
:04000005000007D917
:00000001FF
