:10000000FF0F002001080000DF070000DF070000ED
:10001000DF070000DF070000DF070000000000002E
:10002000000000000000000000000000DF070000EA
:10003000DF07000000000000DF070000DF0700000E
:10004000827BD207FCD501837047817B8908C90771
:10005000FBD5008BC0B270470120A3490A7E012363
:1000600013430B764A7E10434876222008709F483F
:10007000016880220A4302609D489E4908809E488C
:100080009E490160018AC90BFCD1C02189024160EF
:100090009B494181018AC90BFCD1016802220A43B4
:1000A000026098480021017041708170C170017137
:1000B0004171704780B501008F48FFF7C1FF0120F3
:1000C00002BD80B58C48FFF7C0FF02BD80B5AF48C8
:1000D0000078400705D5FFF7F4FF232801D1012060
:1000E00002BD002002BDA94800784107C80F704733
:1000F00070B50C000500002604E02878FFF7DAFF51
:100100006D1C761CA642F8D3300070BD10B50400FB
:10011000FFF7D7FF2070012010BD000248400821E2
:100120004200000402D59A48504000E01000491EE9
:10013000F6D180B27047F2B582B00700002668465B
:100140000680944D18E031002000FFF7E6FF06001E
:100150002889002802D1A879002808D03C707F1C8B
:1001600068460089802802D12889401E2881684677
:1001700069460988491C01800088694609898842C6
:1001800007D2FFF79EFF040068790028DBD001202A
:10019000FEBD3000FEBD70B582B005000C0002212E
:1001A0006846FFF7C8FF80212800FFF7C4FF05005D
:1001B00078484079002814D1FFF783FF0602FFF743
:1001C00080FF301880B2A84208D168460178A14269
:1001D00004D14078E143C9B2884204D01820FFF727
:1001E00069FF002076BD0620FFF764FF012076BD81
:1001F000F2B584B001216B4619700290654F002062
:1002000078710498002801D1B97102E0388100208A
:10021000B8710498400604D0049880307F21884348
:100220000490FFF74EFF7979002903D00020787100
:10023000FFF747FF152805D0432803D07128F0D1D8
:1002400000204EE00298019000260120FFF732FFC7
:1002500068460078FFF72EFF68460078C143C8B2B1
:10026000FFF728FF80243889002804D1B9790029B4
:1002700001D1002505E001990D78491C0191401E2E
:1002800038812800FFF716FF31002800FFF745FFEF
:100290000600641EE7D1000AFFF70CFFF0B2FFF77B
:1002A00009FFFFF70EFF7979002902D0002078714D
:1002B00017E006280AD168460078401C6946087095
:1002C00004988038049002988030029004980028A6
:1002D000B8D10420FFF7EEFEFFF7F3FE0020B8715F
:1002E000012005B0F0BD0000B844004120040040EA
:1002F00012400000020C0040001C004204001040AC
:1003000004C5000060000020F8B5009064260120BC
:10031000012400271F4D6F71002901D1A87101E050
:100320002981AF714320FFF7C5FE1B4802E000287A
:1003300006D0401E154909784907F8D5002806D18E
:10034000761EEFD115E0012815D000281BD0FFF74D
:10035000B8FE697900290BD1012802D004280FD0FA
:1003600011E0E1B20098FFF716FF69790029EAD0A1
:100370006F710020F2BD641C009880300090E6E7A9
:100380000620FFF797FEAF710120F2BD0E1C004260
:10039000211000006000002000350C00012802D16F
:1003A000BEA0B14948607047F0B585B0AE4A137839
:1003B000002B2ED0042901D1006804E0022901D1CC
:1003C000008800E0007801AB4C001C190094651C0B
:1003D0000026302404E037372F7000096D1E761C8C
:1003E0004F00BE4205D207073F0F0A2FF3DA27431B
:1003F000F2E71C70782058700A20009B98700D203E
:10040000009BD8704900091D01A85268D268904726
:1004100002E05268D268904705B0F0BD016881F3F0
:100420000888010A0902914A116040680047704734
:10043000F8B500248C4D6C617A206870402128004A
:1004400020306A6812699047286128002030A8612E
:10045000EC6007E06870AC60A869401CA861E868BF
:10046000401CE860E86829698842E7D2A8690078FA
:100470000100FF29F3D0232900D0DAE028780028F2
:1004800004D002217AA06A68D2689047687853281D
:1004900035D12869E968814220D2AA69521CAA6133
:1004A000491CE960401AA968884200D30800E86145
:1004B000AC700FE0A8690078696908706869401C31
:1004C0006861A869401CA861E868401CE860A878D9
:1004D000401CA870A878E9698842EBD3E868401E00
:1004E000E860A869401EA861A878A968884204D27B
:1004F000091A68696A689269904700BF8DE05228BE
:1005000005D1A96868696A685269904785E04F28F3
:1005100003D1A868696908707FE0482803D1A868FA
:100520006969088079E0572803D1A868696908607B
:1005300073E06F2802D1012168690EE0682804D1B8
:1005400068690088A860022105E0772808D16869F9
:100550000068A860042128000830FFF725FF5CE050
:10056000472807D1A868FFF759FF0620696809687E
:10057000884752E0542802D10120287048E04E28D4
:1005800009D12878002804D1022139A06A68D268EC
:1005900090472C7041E056283FD1012135A06A6870
:1005A000D26890473CA000F087F801003AA06A6842
:1005B000D2689047012130A06A68D268904700BF96
:1005C0002FA0A861EC6001E0491CE960A869411C0A
:1005D000A961E96800780028F6D100BF28A06A6800
:1005E000D2689047012124A06A68D2689047EC60E5
:1005F00026A0A86101E0491CE960A869411CA96125
:10060000E96800780028F6D120A06A68D26890478F
:10061000022117A06A68D26890477A206870AC609F
:100620002878002804D0012114A06A68D268904775
:1006300012E70600AA6813013700303F0A2F03D2E1
:1006400030391943A96007E73700413F062F01D22F
:100650003739F6E7613E062E01D25739F1E72C29EA
:1006600000D0F7E66A61F6E60000002008ED00E041
:100670000A0D000076000000200000003E0000008F
:100680004D617220203920323031360031353A3018
:10069000313A353100000000312E3100B500000044
:1006A000C3000000E7000000F10000000D010000A1
:1006B000F101000009030000010000E0491C0A7874
:1006C000002AFBD1081A704770B582B0184C8025FB
:1006D0006D0465606561E80A41680022D243914279
:1006E00014D0C20322600623124E33706261E269A5
:1006F000D200D30F6A4613701278002A06D0006821
:1007000080F30888E80A0C4A106008470B48016823
:100710000B4A0A400260FFF79FFCFFF7D7FC002856
:10072000FBD025610120FFF739FEFFF781FEFCE7D2
:10073000044400415C44004108ED00E02008004012
:10074000FFFCFFFF70B40121002313E00468001DCB
:100750000C4202D04D466D1E64192360241D121FE9
:10076000042AFAD22500960701D52380AD1C0A4041
:1007700000D02B700268001D002AE7D170BC7047C2
:1007800010B5074979441831064C7C44163404E00E
:10079000081D0A68891888470100A142F8D110BDD8
:1007A00008000000140000009DFFFFFF6C00000027
:1007B000000000200000000000F00BF8002801D02D
:1007C000FFF7DEFF0020C046C046FFF77DFF00F0C8
:1007D00002F80120704780B500F002F801BDFEE785
:1007E0000746384600F002F8FBE7000080B5C04637
:1007F000C046024A11001820ABBEFBE726000200EB
:0C080000C046C046C046C046FFF7D6FF09
:0400000500000801EE
:00000001FF
